{
  "_format": "hh-sol-artifact-1",
  "contractName": "ParkingSpace",
  "sourceName": "contracts/ParkingSpace.sol",
  "abi": [
    {
      "inputs": [],
      "stateMutability": "nonpayable",
      "type": "constructor"
    },
    {
      "anonymous": false,
      "inputs": [
        {
          "indexed": true,
          "internalType": "address",
          "name": "owner",
          "type": "address"
        },
        {
          "indexed": true,
          "internalType": "address",
          "name": "approved",
          "type": "address"
        },
        {
          "indexed": true,
          "internalType": "uint256",
          "name": "tokenId",
          "type": "uint256"
        }
      ],
      "name": "Approval",
      "type": "event"
    },
    {
      "anonymous": false,
      "inputs": [
        {
          "indexed": true,
          "internalType": "address",
          "name": "owner",
          "type": "address"
        },
        {
          "indexed": true,
          "internalType": "address",
          "name": "operator",
          "type": "address"
        },
        {
          "indexed": false,
          "internalType": "bool",
          "name": "approved",
          "type": "bool"
        }
      ],
      "name": "ApprovalForAll",
      "type": "event"
    },
    {
      "anonymous": false,
      "inputs": [
        {
          "indexed": true,
          "internalType": "address",
          "name": "previousOwner",
          "type": "address"
        },
        {
          "indexed": true,
          "internalType": "address",
          "name": "newOwner",
          "type": "address"
        }
      ],
      "name": "OwnershipTransferred",
      "type": "event"
    },
    {
      "anonymous": false,
      "inputs": [
        {
          "indexed": true,
          "internalType": "address",
          "name": "from",
          "type": "address"
        },
        {
          "indexed": true,
          "internalType": "address",
          "name": "to",
          "type": "address"
        },
        {
          "indexed": true,
          "internalType": "uint256",
          "name": "tokenId",
          "type": "uint256"
        }
      ],
      "name": "Transfer",
      "type": "event"
    },
    {
      "inputs": [],
      "name": "additionalTime",
      "outputs": [
        {
          "internalType": "uint256",
          "name": "",
          "type": "uint256"
        }
      ],
      "stateMutability": "view",
      "type": "function"
    },
    {
      "inputs": [
        {
          "internalType": "address",
          "name": "to",
          "type": "address"
        },
        {
          "internalType": "uint256",
          "name": "_tokenId",
          "type": "uint256"
        }
      ],
      "name": "approve",
      "outputs": [],
      "stateMutability": "nonpayable",
      "type": "function"
    },
    {
      "inputs": [
        {
          "internalType": "address",
          "name": "owner",
          "type": "address"
        }
      ],
      "name": "balanceOf",
      "outputs": [
        {
          "internalType": "uint256",
          "name": "",
          "type": "uint256"
        }
      ],
      "stateMutability": "view",
      "type": "function"
    },
    {
      "inputs": [
        {
          "internalType": "address",
          "name": "",
          "type": "address"
        }
      ],
      "name": "blacklisted",
      "outputs": [
        {
          "internalType": "bool",
          "name": "",
          "type": "bool"
        }
      ],
      "stateMutability": "view",
      "type": "function"
    },
    {
      "inputs": [
        {
          "internalType": "uint256",
          "name": "tokenId",
          "type": "uint256"
        }
      ],
      "name": "buyLot",
      "outputs": [],
      "stateMutability": "payable",
      "type": "function"
    },
    {
      "inputs": [
        {
          "internalType": "uint256",
          "name": "tokenId",
          "type": "uint256"
        }
      ],
      "name": "clientEndRent",
      "outputs": [],
      "stateMutability": "payable",
      "type": "function"
    },
    {
      "inputs": [
        {
          "internalType": "string",
          "name": "uri",
          "type": "string"
        }
      ],
      "name": "createLot",
      "outputs": [],
      "stateMutability": "payable",
      "type": "function"
    },
    {
      "inputs": [
        {
          "internalType": "uint256",
          "name": "tokenId",
          "type": "uint256"
        }
      ],
      "name": "getApproved",
      "outputs": [
        {
          "internalType": "address",
          "name": "",
          "type": "address"
        }
      ],
      "stateMutability": "view",
      "type": "function"
    },
    {
      "inputs": [],
      "name": "getBlacklistCount",
      "outputs": [
        {
          "internalType": "uint256",
          "name": "",
          "type": "uint256"
        }
      ],
      "stateMutability": "view",
      "type": "function"
    },
    {
      "inputs": [
        {
          "internalType": "uint256",
          "name": "tokenId",
          "type": "uint256"
        }
      ],
      "name": "getLot",
      "outputs": [
        {
          "components": [
            {
              "internalType": "address payable",
              "name": "lender",
              "type": "address"
            },
            {
              "internalType": "address payable",
              "name": "renter",
              "type": "address"
            },
            {
              "internalType": "uint256",
              "name": "price",
              "type": "uint256"
            },
            {
              "internalType": "uint256",
              "name": "rentPrice",
              "type": "uint256"
            },
            {
              "internalType": "uint256",
              "name": "deposit",
              "type": "uint256"
            },
            {
              "internalType": "uint256",
              "name": "returnDay",
              "type": "uint256"
            },
            {
              "internalType": "uint256",
              "name": "rentTime",
              "type": "uint256"
            },
            {
              "internalType": "enum ParkingSpace.Listing",
              "name": "status",
              "type": "uint8"
            }
          ],
          "internalType": "struct ParkingSpace.Lot",
          "name": "",
          "type": "tuple"
        }
      ],
      "stateMutability": "view",
      "type": "function"
    },
    {
      "inputs": [],
      "name": "getMaxLotPerWallet",
      "outputs": [
        {
          "internalType": "uint256",
          "name": "",
          "type": "uint256"
        }
      ],
      "stateMutability": "view",
      "type": "function"
    },
    {
      "inputs": [],
      "name": "getMintFee",
      "outputs": [
        {
          "internalType": "uint256",
          "name": "",
          "type": "uint256"
        }
      ],
      "stateMutability": "view",
      "type": "function"
    },
    {
      "inputs": [],
      "name": "getParkingLotsLength",
      "outputs": [
        {
          "internalType": "uint256",
          "name": "",
          "type": "uint256"
        }
      ],
      "stateMutability": "view",
      "type": "function"
    },
    {
      "inputs": [
        {
          "internalType": "uint256",
          "name": "tokenId",
          "type": "uint256"
        },
        {
          "internalType": "uint256",
          "name": "_time",
          "type": "uint256"
        },
        {
          "internalType": "uint256",
          "name": "_status",
          "type": "uint256"
        }
      ],
      "name": "getRentPrice",
      "outputs": [
        {
          "internalType": "uint256",
          "name": "",
          "type": "uint256"
        }
      ],
      "stateMutability": "view",
      "type": "function"
    },
    {
      "inputs": [
        {
          "internalType": "address",
          "name": "owner",
          "type": "address"
        },
        {
          "internalType": "address",
          "name": "operator",
          "type": "address"
        }
      ],
      "name": "isApprovedForAll",
      "outputs": [
        {
          "internalType": "bool",
          "name": "",
          "type": "bool"
        }
      ],
      "stateMutability": "view",
      "type": "function"
    },
    {
      "inputs": [
        {
          "internalType": "uint256",
          "name": "tokenId",
          "type": "uint256"
        }
      ],
      "name": "lenderEndRent",
      "outputs": [],
      "stateMutability": "payable",
      "type": "function"
    },
    {
      "inputs": [],
      "name": "name",
      "outputs": [
        {
          "internalType": "string",
          "name": "",
          "type": "string"
        }
      ],
      "stateMutability": "view",
      "type": "function"
    },
    {
      "inputs": [],
      "name": "owner",
      "outputs": [
        {
          "internalType": "address",
          "name": "",
          "type": "address"
        }
      ],
      "stateMutability": "view",
      "type": "function"
    },
    {
      "inputs": [
        {
          "internalType": "uint256",
          "name": "tokenId",
          "type": "uint256"
        }
      ],
      "name": "ownerOf",
      "outputs": [
        {
          "internalType": "address",
          "name": "",
          "type": "address"
        }
      ],
      "stateMutability": "view",
      "type": "function"
    },
    {
      "inputs": [
        {
          "internalType": "address",
          "name": "",
          "type": "address"
        }
      ],
      "name": "parkingLotsPerWallet",
      "outputs": [
        {
          "internalType": "uint256",
          "name": "",
          "type": "uint256"
        }
      ],
      "stateMutability": "view",
      "type": "function"
    },
    {
      "inputs": [],
      "name": "renounceOwnership",
      "outputs": [],
      "stateMutability": "nonpayable",
      "type": "function"
    },
    {
      "inputs": [
        {
          "internalType": "uint256",
          "name": "tokenId",
          "type": "uint256"
        },
        {
          "internalType": "uint256",
          "name": "_time",
          "type": "uint256"
        }
      ],
      "name": "rentLot",
      "outputs": [],
      "stateMutability": "payable",
      "type": "function"
    },
    {
      "inputs": [
        {
          "internalType": "address",
          "name": "from",
          "type": "address"
        },
        {
          "internalType": "address",
          "name": "to",
          "type": "address"
        },
        {
          "internalType": "uint256",
          "name": "tokenId",
          "type": "uint256"
        }
      ],
      "name": "safeTransferFrom",
      "outputs": [],
      "stateMutability": "nonpayable",
      "type": "function"
    },
    {
      "inputs": [
        {
          "internalType": "address",
          "name": "from",
          "type": "address"
        },
        {
          "internalType": "address",
          "name": "to",
          "type": "address"
        },
        {
          "internalType": "uint256",
          "name": "_tokenId",
          "type": "uint256"
        },
        {
          "internalType": "bytes",
          "name": "data",
          "type": "bytes"
        }
      ],
      "name": "safeTransferFrom",
      "outputs": [],
      "stateMutability": "nonpayable",
      "type": "function"
    },
    {
      "inputs": [
        {
          "internalType": "address",
          "name": "operator",
          "type": "address"
        },
        {
          "internalType": "bool",
          "name": "approved",
          "type": "bool"
        }
      ],
      "name": "setApprovalForAll",
      "outputs": [],
      "stateMutability": "nonpayable",
      "type": "function"
    },
    {
      "inputs": [
        {
          "internalType": "uint256",
          "name": "tokenId",
          "type": "uint256"
        },
        {
          "internalType": "uint256",
          "name": "price",
          "type": "uint256"
        },
        {
          "internalType": "uint256",
          "name": "deposit",
          "type": "uint256"
        }
      ],
      "name": "setRent",
      "outputs": [],
      "stateMutability": "nonpayable",
      "type": "function"
    },
    {
      "inputs": [
        {
          "internalType": "uint256",
          "name": "tokenId",
          "type": "uint256"
        },
        {
          "internalType": "uint256",
          "name": "price",
          "type": "uint256"
        }
      ],
      "name": "setSale",
      "outputs": [],
      "stateMutability": "nonpayable",
      "type": "function"
    },
    {
      "inputs": [
        {
          "internalType": "uint256",
          "name": "tokenId",
          "type": "uint256"
        }
      ],
      "name": "setUnavailable",
      "outputs": [],
      "stateMutability": "nonpayable",
      "type": "function"
    },
    {
      "inputs": [
        {
          "internalType": "bytes4",
          "name": "interfaceId",
          "type": "bytes4"
        }
      ],
      "name": "supportsInterface",
      "outputs": [
        {
          "internalType": "bool",
          "name": "",
          "type": "bool"
        }
      ],
      "stateMutability": "view",
      "type": "function"
    },
    {
      "inputs": [],
      "name": "symbol",
      "outputs": [
        {
          "internalType": "string",
          "name": "",
          "type": "string"
        }
      ],
      "stateMutability": "view",
      "type": "function"
    },
    {
      "inputs": [
        {
          "internalType": "uint256",
          "name": "tokenId",
          "type": "uint256"
        }
      ],
      "name": "tokenURI",
      "outputs": [
        {
          "internalType": "string",
          "name": "",
          "type": "string"
        }
      ],
      "stateMutability": "view",
      "type": "function"
    },
    {
      "inputs": [
        {
          "internalType": "address",
          "name": "from",
          "type": "address"
        },
        {
          "internalType": "address",
          "name": "to",
          "type": "address"
        },
        {
          "internalType": "uint256",
          "name": "_tokenId",
          "type": "uint256"
        }
      ],
      "name": "transferFrom",
      "outputs": [],
      "stateMutability": "nonpayable",
      "type": "function"
    },
    {
      "inputs": [
        {
          "internalType": "address",
          "name": "newOwner",
          "type": "address"
        }
      ],
      "name": "transferOwnership",
      "outputs": [],
      "stateMutability": "nonpayable",
      "type": "function"
    }
  ],
  "bytecode": "0x60806040523480156200001157600080fd5b50604080518082018252600c81526b5061726b696e67537061636560a01b602080830191825283518085019094526002845261505360f01b908401528151919291620000609160009162000122565b5080516200007690600190602084019062000122565b505050620000936200008d620000cc60201b60201c565b620000d0565b6001600855614650600b55600d80546001600160a01b03191633179055600a601055670de0b6b3a7640000600f819055600c5562000205565b3390565b600780546001600160a01b038381166001600160a01b0319831681179093556040519116919082907f8be0079c531659141344cd1fd0a4f28419497f9722a3daafe3b4186f6b6457e090600090a35050565b8280546200013090620001c8565b90600052602060002090601f0160209004810192826200015457600085556200019f565b82601f106200016f57805160ff19168380011785556200019f565b828001600101855582156200019f579182015b828111156200019f57825182559160200191906001019062000182565b50620001ad929150620001b1565b5090565b5b80821115620001ad5760008155600101620001b2565b600181811c90821680620001dd57607f821691505b60208210811415620001ff57634e487b7160e01b600052602260045260246000fd5b50919050565b61302980620002156000396000f3fe6080604052600436106101ee5760003560e01c806395d89b411161010d578063c87b56dd116100a0578063e860cb8f1161006f578063e860cb8f14610565578063e985e9c51461057a578063f0b5c769146105c3578063f2fde38b146105d6578063f901a18f146105f657600080fd5b8063c87b56dd146104ea578063da19c5c61461050a578063dbac26e91461051f578063df1199481461054f57600080fd5b8063b10aab17116100dc578063b10aab1714610477578063b26549e114610497578063b532f92c146104aa578063b88d4fde146104ca57600080fd5b806395d89b41146103f5578063a22cb4651461040a578063a945a5591461042a578063ab995d121461044a57600080fd5b80634e12125f1161018557806374e3e3dc1161015457806374e3e3dc1461039c5780637a5caab3146103af578063868c1bab146103c45780638da5cb5b146103d757600080fd5b80634e12125f146103345780636352211e1461034757806370a0823114610367578063715018a61461038757600080fd5b806313f71fd8116101c157806313f71fd8146102a457806319c29f8a146102df57806323b872dd146102f457806342842e0e1461031457600080fd5b806301ffc9a7146101f357806306fdde0314610228578063081812fc1461024a578063095ea7b314610282575b600080fd5b3480156101ff57600080fd5b5061021361020e366004612b48565b610616565b60405190151581526020015b60405180910390f35b34801561023457600080fd5b5061023d610668565b60405161021f9190612cc2565b34801561025657600080fd5b5061026a610265366004612bc6565b6106fa565b6040516001600160a01b03909116815260200161021f565b34801561028e57600080fd5b506102a261029d366004612b1f565b610721565b005b3480156102b057600080fd5b506102d16102bf3660046129e5565b60116020526000908152604090205481565b60405190815260200161021f565b3480156102eb57600080fd5b506102d161076e565b34801561030057600080fd5b506102a261030f366004612a31565b61077e565b34801561032057600080fd5b506102a261032f366004612a31565b6107c4565b6102a2610342366004612b80565b6107df565b34801561035357600080fd5b5061026a610362366004612bc6565b610b3d565b34801561037357600080fd5b506102d16103823660046129e5565b610b9d565b34801561039357600080fd5b506102a2610c23565b6102a26103aa366004612bc6565b610c37565b3480156103bb57600080fd5b50600f546102d1565b6102a26103d2366004612bc6565b610e92565b3480156103e357600080fd5b506007546001600160a01b031661026a565b34801561040157600080fd5b5061023d611190565b34801561041657600080fd5b506102a2610425366004612ae5565b61119f565b34801561043657600080fd5b506102d1610445366004612bff565b6111aa565b34801561045657600080fd5b5061046a610465366004612bc6565b611246565b60405161021f9190612e1e565b34801561048357600080fd5b506102a2610492366004612bff565b611333565b6102a26104a5366004612bc6565b61147d565b3480156104b657600080fd5b506102a26104c5366004612bc6565b6115a2565b3480156104d657600080fd5b506102a26104e5366004612a6c565b61164b565b3480156104f657600080fd5b5061023d610505366004612bc6565b611693565b34801561051657600080fd5b506010546102d1565b34801561052b57600080fd5b5061021361053a3660046129e5565b600e6020526000908152604090205460ff1681565b34801561055b57600080fd5b506102d1600b5481565b34801561057157600080fd5b506102d161169e565b34801561058657600080fd5b506102136105953660046129ff565b6001600160a01b03918216600090815260056020908152604080832093909416825291909152205460ff1690565b6102a26105d1366004612bde565b6116a9565b3480156105e257600080fd5b506102a26105f13660046129e5565b611a67565b34801561060257600080fd5b506102a2610611366004612bde565b611ae0565b60006001600160e01b031982166380ac58cd60e01b148061064757506001600160e01b03198216635b5e139f60e01b145b8061066257506301ffc9a760e01b6001600160e01b03198316145b92915050565b60606000805461067790612f31565b80601f01602080910402602001604051908101604052809291908181526020018280546106a390612f31565b80156106f05780601f106106c5576101008083540402835291602001916106f0565b820191906000526020600020905b8154815290600101906020018083116106d357829003601f168201915b5050505050905090565b600061070582611bf2565b506000908152600460205260409020546001600160a01b031690565b6000818152601260205260409020546001600160a01b031633146107605760405162461bcd60e51b815260040161075790612db0565b60405180910390fd5b61076a8282611c51565b5050565b600061077960095490565b905090565b6000818152601260205260409020546001600160a01b031633146107b45760405162461bcd60e51b815260040161075790612db0565b6107bf838383611d62565b505050565b6107bf8383836040518060200160405280600081525061164b565b6010543360009081526011602052604090205411156108595760405162461bcd60e51b815260206004820152603060248201527f596f752068617665207265616368656420746865206e756d626572206f66204c60448201526f1bdd1cc81e5bdd4818d85b881c995b9d60821b6064820152608401610757565b6002600854141561087c5760405162461bcd60e51b815260040161075790612de7565b60026008558051600f106108c85760405162461bcd60e51b8152602060048201526013602482015272155c9a481a185cc81d1bc81899481d985b1a59606a1b6044820152606401610757565b600f5434146109195760405162461bcd60e51b815260206004820152601c60248201527f596f75206e65656420746f2070617920746865206d696e7420666565000000006044820152606401610757565b600061092460095490565b9050610934600980546001019055565b604051806101000160405280336001600160a01b03168152602001336001600160a01b031681526020016000815260200160008152602001600081526020016000815260200160008152602001600260038111156109a257634e487b7160e01b600052602160045260246000fd5b9052600082815260126020908152604091829020835181546001600160a01b039182166001600160a01b03199182161783559285015160018084018054929093169190941617905591830151600283015560608301516003808401919091556080840151600484015560a0840151600584015560c0840151600684015560e08401516007840180549193909260ff19909216918490811115610a5457634e487b7160e01b600052602160045260246000fd5b0217905550503360009081526011602052604081208054925090610a7783612f6c565b9091555050600d546040516000916001600160a01b03169034908381818185875af1925050503d8060008114610ac9576040519150601f19603f3d011682016040523d82523d6000602084013e610ace565b606091505b5050905080610b1f5760405162461bcd60e51b815260206004820152601b60248201527f5061796d656e74206661696c656420666f72206d696e742066656500000000006044820152606401610757565b610b293383611dda565b610b338284611df4565b5050600160085550565b6000818152600260205260408120546001600160a01b0316806106625760405162461bcd60e51b8152602060048201526018602482015277115490cdcc8c4e881a5b9d985b1a59081d1bdad95b88125160421b6044820152606401610757565b60006001600160a01b038216610c075760405162461bcd60e51b815260206004820152602960248201527f4552433732313a2061646472657373207a65726f206973206e6f7420612076616044820152683634b21037bbb732b960b91b6064820152608401610757565b506001600160a01b031660009081526003602052604090205490565b610c2b611e8e565b610c356000611ee8565b565b60026008541415610c5a5760405162461bcd60e51b815260040161075790612de7565b600260088190556000828152601260205260409020908101543414610ccd5760405162461bcd60e51b815260206004820152602360248201527f596f75206e65656420746f206d61746368207468652073656c6c696e6720707260448201526269636560e81b6064820152608401610757565b6000600782015460ff166003811115610cf657634e487b7160e01b600052602160045260246000fd5b14610d375760405162461bcd60e51b81526020600482015260116024820152704c6f742069736e2774206f6e2073616c6560781b6044820152606401610757565b80546001600160a01b0316331415610d915760405162461bcd60e51b815260206004820152601a60248201527f596f752063616e27742062757920796f7572206f776e204c6f740000000000006044820152606401610757565b8054336001600160a01b03198083168217845560018401805490911682179055600060028085019190915560078401805460ff191690911790556001600160a01b0390911690610de390309085611f3a565b60405134906000906001600160a01b0384169083908381818185875af1925050503d8060008114610e30576040519150601f19603f3d011682016040523d82523d6000602084013e610e35565b606091505b5050905080610e865760405162461bcd60e51b815260206004820152601960248201527f5061796d656e7420746f20627579206c6f74206661696c6564000000000000006044820152606401610757565b50506001600855505050565b60026008541415610eb55760405162461bcd60e51b815260040161075790612de7565b60026008819055600082815260126020908152604080832081516101008101835281546001600160a01b039081168252600183015416938101939093529384015490820152600380840154606083015260048401546080830152600584015460a0830152600684015460c083015260078401549293919260e084019160ff90911690811115610f5457634e487b7160e01b600052602160045260246000fd5b6003811115610f7357634e487b7160e01b600052602160045260246000fd5b90525060208101519091506001600160a01b03163314610fd55760405162461bcd60e51b815260206004820181905260248201527f4f6e6c79207468652072656e7465722063616e20656e64207468652072656e746044820152606401610757565b600b548160a00151610fe79190612ea3565b4211156110525760405162461bcd60e51b815260206004820152603360248201527f596f752068617665206265656e20626c61636b6c69737465642064756520746f604482015272081b185d19481c995d1d5c9b881bd9881b1bdd606a1b6064820152608401610757565b60648160800151101561117e576000611071838360c0015160036111aa565b90508034146110d95760405162461bcd60e51b815260206004820152602e60248201527f596f75206e65656420746f20706179207468652072656d61696e696e6720666560448201526d195cc81d1bc8195b99081c995b9d60921b6064820152608401610757565b81516040516000916001600160a01b03169083908381818185875af1925050503d8060008114611125576040519150601f19603f3d011682016040523d82523d6000602084013e61112a565b606091505b505090508061117b5760405162461bcd60e51b815260206004820152601a60248201527f5061796d656e7420746f20656e642072656e74206661696c65640000000000006044820152606401610757565b50505b611187826120d6565b50506001600855565b60606001805461067790612f31565b61076a338383612137565b6000838152601260205260408120600381015482906111cb90606490612ebb565b90506003841415611212576111e36201518086612ebb565b81836004015460646111f59190612eee565b6111ff9190612ecf565b6112099190612ecf565b9250505061123f565b6001841415611238576112286201518086612ebb565b8183600401546111ff9190612ecf565b6000925050505b9392505050565b61124e612845565b6000828152600260205260409020546001600160a01b031661126f57600080fd5b60008281526012602090815260409182902082516101008101845281546001600160a01b03908116825260018301541692810192909252600281015492820192909252600380830154606083015260048301546080830152600583015460a0830152600683015460c0830152600783015491929160e084019160ff9091169081111561130b57634e487b7160e01b600052602160045260246000fd5b600381111561132a57634e487b7160e01b600052602160045260246000fd5b90525092915050565b82600360008281526012602052604090206007015460ff16600381111561136a57634e487b7160e01b600052602160045260246000fd5b14156113885760405162461bcd60e51b815260040161075790612cd5565b600084815260126020526040902083158015906113a6575060648311155b6113fe5760405162461bcd60e51b8152602060048201526024808201527f456e7465722076616c696420707269636520616e6420646570736f697420616d6044820152631bdd5b9d60e21b6064820152608401610757565b80546001600160a01b031633146114275760405162461bcd60e51b815260040161075790612d6a565b60078101805460ff191660011790553061144086610b3d565b6001600160a01b0316141561145a5761145a303387611f3a565b6114643086612206565b6003810193909355506000600283015560049091015550565b600081815260126020526040902080546001600160a01b031633146114e45760405162461bcd60e51b815260206004820152601c60248201527f4f6e6c79206c656e6465722063616e20656e64207468652072656e74000000006044820152606401610757565b600b5481600501546114f69190612ea3565b42116115635760405162461bcd60e51b815260206004820152603660248201527f5468657265206973207374696c6c2074696d65206c65667420666f722072656e60448201527574657220746f2072657475726e20746865206c6f742160501b6064820152608401610757565b611571600a80546001019055565b6001818101546001600160a01b03166000908152600e60205260409020805460ff1916909117905561076a826120d6565b80600360008281526012602052604090206007015460ff1660038111156115d957634e487b7160e01b600052602160045260246000fd5b14156115f75760405162461bcd60e51b815260040161075790612cd5565b600082815260126020526040812060078101805460ff19166002908117909155600482018390558101829055600301553061163183610b3d565b6001600160a01b0316141561076a5761076a303384611f3a565b6000828152601260205260409020546001600160a01b031633146116815760405162461bcd60e51b815260040161075790612db0565b61168d84848484612274565b50505050565b6060610662826122a7565b6000610779600a5490565b81600360008281526012602052604090206007015460ff1660038111156116e057634e487b7160e01b600052602160045260246000fd5b14156116fe5760405162461bcd60e51b815260040161075790612cd5565b600b54600084815260126020526040902060050154849161171e91612ea3565b4211801561175f5750600160008281526012602052604090206007015460ff16600381111561175d57634e487b7160e01b600052602160045260246000fd5b145b6117b75760405162461bcd60e51b8152602060048201526024808201527f536f6d656f6e652068617320616c72656164792072656e7465642074686973206044820152636c6f742160e01b6064820152608401610757565b336000908152600e602052604090205460ff161561182b5760405162461bcd60e51b815260206004820152602b60248201527f796f752061726520626c61636b6c69737465642066726f6d207573696e67207460448201526a686520706c6174666f726d60a81b6064820152608401610757565b600084815260126020526040902060018101546001600160a01b03163314156118a75760405162461bcd60e51b815260206004820152602860248201527f596f75206172652063757272656e746c792072656e74696e67207468697320616044820152671c185c9d1b595b9d60c21b6064820152608401610757565b620151808410156119045760405162461bcd60e51b815260206004820152602160248201527f54696d65206e6565647320746f206265206174206c65617374206f6e652064616044820152607960f81b6064820152608401610757565b6000611912868660016111aa565b90508034146119635760405162461bcd60e51b815260206004820152601b60248201527f596f75206e65656420746f2070617920746f2072656e74206c6f7400000000006044820152606401610757565b6001820180546001600160a01b03191633179055600682018590556119888542612ea3565b600583015560078201805460ff1916600317905581546119b2906001600160a01b03163388611f3a565b6119bc3087612206565b81546040516000916001600160a01b03169083908381818185875af1925050503d8060008114611a08576040519150601f19603f3d011682016040523d82523d6000602084013e611a0d565b606091505b5050905080611a5e5760405162461bcd60e51b815260206004820152601a60248201527f5061796d656e7420746f2072656e74206c6f74206661696c65640000000000006044820152606401610757565b50505050505050565b611a6f611e8e565b6001600160a01b038116611ad45760405162461bcd60e51b815260206004820152602660248201527f4f776e61626c653a206e6577206f776e657220697320746865207a65726f206160448201526564647265737360d01b6064820152608401610757565b611add81611ee8565b50565b81600360008281526012602052604090206007015460ff166003811115611b1757634e487b7160e01b600052602160045260246000fd5b1415611b355760405162461bcd60e51b815260040161075790612cd5565b600083815260126020526040902082611b845760405162461bcd60e51b8152602060048201526011602482015270456e7465722076616c696420707269636560781b6044820152606401610757565b80546001600160a01b03163314611bad5760405162461bcd60e51b815260040161075790612d6a565b60078101805460ff1916905560006003820181905560028201849055600482015533611bd885610b3d565b6001600160a01b0316141561168d5761168d333086611f3a565b6000818152600260205260409020546001600160a01b0316611add5760405162461bcd60e51b8152602060048201526018602482015277115490cdcc8c4e881a5b9d985b1a59081d1bdad95b88125160421b6044820152606401610757565b6000611c5c82610b3d565b9050806001600160a01b0316836001600160a01b03161415611cca5760405162461bcd60e51b815260206004820152602160248201527f4552433732313a20617070726f76616c20746f2063757272656e74206f776e656044820152603960f91b6064820152608401610757565b336001600160a01b0382161480611ce65750611ce68133610595565b611d585760405162461bcd60e51b815260206004820152603e60248201527f4552433732313a20617070726f76652063616c6c6572206973206e6f7420746f60448201527f6b656e206f776e6572206e6f7220617070726f76656420666f7220616c6c00006064820152608401610757565b6107bf8383612206565b611d6c33826123b8565b611dcf5760405162461bcd60e51b815260206004820152602e60248201527f4552433732313a2063616c6c6572206973206e6f7420746f6b656e206f776e6560448201526d1c881b9bdc88185c1c1c9bdd995960921b6064820152608401610757565b6107bf838383611f3a565b61076a828260405180602001604052806000815250612436565b6000828152600260205260409020546001600160a01b0316611e6f5760405162461bcd60e51b815260206004820152602e60248201527f45524337323155524953746f726167653a2055524920736574206f66206e6f6e60448201526d32bc34b9ba32b73a103a37b5b2b760911b6064820152608401610757565b600082815260066020908152604090912082516107bf928401906128ba565b6007546001600160a01b03163314610c355760405162461bcd60e51b815260206004820181905260248201527f4f776e61626c653a2063616c6c6572206973206e6f7420746865206f776e65726044820152606401610757565b600780546001600160a01b038381166001600160a01b0319831681179093556040519116919082907f8be0079c531659141344cd1fd0a4f28419497f9722a3daafe3b4186f6b6457e090600090a35050565b826001600160a01b0316611f4d82610b3d565b6001600160a01b031614611fb15760405162461bcd60e51b815260206004820152602560248201527f4552433732313a207472616e736665722066726f6d20696e636f72726563742060448201526437bbb732b960d91b6064820152608401610757565b6001600160a01b0382166120135760405162461bcd60e51b8152602060048201526024808201527f4552433732313a207472616e7366657220746f20746865207a65726f206164646044820152637265737360e01b6064820152608401610757565b61201e600082612206565b6001600160a01b0383166000908152600360205260408120805460019290612047908490612eee565b90915550506001600160a01b0382166000908152600360205260408120805460019290612075908490612ea3565b909155505060008181526002602052604080822080546001600160a01b0319166001600160a01b0386811691821790925591518493918716917fddf252ad1be2c89b69c2b068fc378daa952ba7f163c4a11628f55a4df523b3ef91a4505050565b60008181526012602052604081206001808201805460058401859055600684019490945582546001600160a01b039081166001600160a01b03198616811790925560078401805460ff1916909317909255919216906107bf90829085611f3a565b816001600160a01b0316836001600160a01b031614156121995760405162461bcd60e51b815260206004820152601960248201527f4552433732313a20617070726f766520746f2063616c6c6572000000000000006044820152606401610757565b6001600160a01b03838116600081815260056020908152604080832094871680845294825291829020805460ff191686151590811790915591519182527f17307eab39ab6107e8899845ad3d59bd9653f200f220920489ca2b5937696c31910160405180910390a3505050565b600081815260046020526040902080546001600160a01b0319166001600160a01b038416908117909155819061223b82610b3d565b6001600160a01b03167f8c5be1e5ebec7d5bd14f71427d1e84f3dd0314c0f7b2291e5b200ac8c7c3b92560405160405180910390a45050565b61227f848484611f3a565b61228b84848484612469565b61168d5760405162461bcd60e51b815260040161075790612d18565b60606122b282611bf2565b600082815260066020526040812080546122cb90612f31565b80601f01602080910402602001604051908101604052809291908181526020018280546122f790612f31565b80156123445780601f1061231957610100808354040283529160200191612344565b820191906000526020600020905b81548152906001019060200180831161232757829003601f168201915b50505050509050600061236260408051602081019091526000815290565b9050805160001415612375575092915050565b8151156123a757808260405160200161238f929190612c56565b60405160208183030381529060405292505050919050565b6123b084612576565b949350505050565b6000806123c483610b3d565b9050806001600160a01b0316846001600160a01b0316148061240b57506001600160a01b0380821660009081526005602090815260408083209388168352929052205460ff165b806123b05750836001600160a01b0316612424846106fa565b6001600160a01b031614949350505050565b61244083836125e9565b61244d6000848484612469565b6107bf5760405162461bcd60e51b815260040161075790612d18565b60006001600160a01b0384163b1561256b57604051630a85bd0160e11b81526001600160a01b0385169063150b7a02906124ad903390899088908890600401612c85565b602060405180830381600087803b1580156124c757600080fd5b505af19250505080156124f7575060408051601f3d908101601f191682019092526124f491810190612b64565b60015b612551573d808015612525576040519150601f19603f3d011682016040523d82523d6000602084013e61252a565b606091505b5080516125495760405162461bcd60e51b815260040161075790612d18565b805181602001fd5b6001600160e01b031916630a85bd0160e11b1490506123b0565b506001949350505050565b606061258182611bf2565b600061259860408051602081019091526000815290565b905060008151116125b8576040518060200160405280600081525061123f565b806125c28461272b565b6040516020016125d3929190612c56565b6040516020818303038152906040529392505050565b6001600160a01b03821661263f5760405162461bcd60e51b815260206004820181905260248201527f4552433732313a206d696e7420746f20746865207a65726f20616464726573736044820152606401610757565b6000818152600260205260409020546001600160a01b0316156126a45760405162461bcd60e51b815260206004820152601c60248201527f4552433732313a20746f6b656e20616c7265616479206d696e746564000000006044820152606401610757565b6001600160a01b03821660009081526003602052604081208054600192906126cd908490612ea3565b909155505060008181526002602052604080822080546001600160a01b0319166001600160a01b03861690811790915590518392907fddf252ad1be2c89b69c2b068fc378daa952ba7f163c4a11628f55a4df523b3ef908290a45050565b60608161274f5750506040805180820190915260018152600360fc1b602082015290565b8160005b8115612779578061276381612f6c565b91506127729050600a83612ebb565b9150612753565b60008167ffffffffffffffff8111156127a257634e487b7160e01b600052604160045260246000fd5b6040519080825280601f01601f1916602001820160405280156127cc576020820181803683370190505b5090505b84156123b0576127e1600183612eee565b91506127ee600a86612f87565b6127f9906030612ea3565b60f81b81838151811061281c57634e487b7160e01b600052603260045260246000fd5b60200101906001600160f81b031916908160001a90535061283e600a86612ebb565b94506127d0565b60405180610100016040528060006001600160a01b0316815260200160006001600160a01b031681526020016000815260200160008152602001600081526020016000815260200160008152602001600060038111156128b557634e487b7160e01b600052602160045260246000fd5b905290565b8280546128c690612f31565b90600052602060002090601f0160209004810192826128e8576000855561292e565b82601f1061290157805160ff191683800117855561292e565b8280016001018555821561292e579182015b8281111561292e578251825591602001919060010190612913565b5061293a92915061293e565b5090565b5b8082111561293a576000815560010161293f565b600067ffffffffffffffff8084111561296e5761296e612fc7565b604051601f8501601f19908116603f0116810190828211818310171561299657612996612fc7565b816040528093508581528686860111156129af57600080fd5b858560208301376000602087830101525050509392505050565b80356001600160a01b03811681146129e057600080fd5b919050565b6000602082840312156129f6578081fd5b61123f826129c9565b60008060408385031215612a11578081fd5b612a1a836129c9565b9150612a28602084016129c9565b90509250929050565b600080600060608486031215612a45578081fd5b612a4e846129c9565b9250612a5c602085016129c9565b9150604084013590509250925092565b60008060008060808587031215612a81578081fd5b612a8a856129c9565b9350612a98602086016129c9565b925060408501359150606085013567ffffffffffffffff811115612aba578182fd5b8501601f81018713612aca578182fd5b612ad987823560208401612953565b91505092959194509250565b60008060408385031215612af7578182fd5b612b00836129c9565b915060208301358015158114612b14578182fd5b809150509250929050565b60008060408385031215612b31578182fd5b612b3a836129c9565b946020939093013593505050565b600060208284031215612b59578081fd5b813561123f81612fdd565b600060208284031215612b75578081fd5b815161123f81612fdd565b600060208284031215612b91578081fd5b813567ffffffffffffffff811115612ba7578182fd5b8201601f81018413612bb7578182fd5b6123b084823560208401612953565b600060208284031215612bd7578081fd5b5035919050565b60008060408385031215612bf0578182fd5b50508035926020909101359150565b600080600060608486031215612c13578283fd5b505081359360208301359350604090920135919050565b60008151808452612c42816020860160208601612f05565b601f01601f19169290920160200192915050565b60008351612c68818460208801612f05565b835190830190612c7c818360208801612f05565b01949350505050565b6001600160a01b0385811682528416602082015260408101839052608060608201819052600090612cb890830184612c2a565b9695505050505050565b60208152600061123f6020830184612c2a565b60208082526023908201527f5061726b696e67206c6f742069732063757272656e7420756e617661696c61626040820152626c652160e81b606082015260800190565b60208082526032908201527f4552433732313a207472616e7366657220746f206e6f6e20455243373231526560408201527131b2b4bb32b91034b6b83632b6b2b73a32b960711b606082015260800190565b60208082526026908201527f4f6e6c7920746865206f776e65722063616e20706572666f726d20746869732060408201526530b1ba34b7b760d11b606082015260800190565b6020808252601d908201527f43616c6c65722068617320746f206265206f776e6572206f66204e4654000000604082015260600190565b6020808252601f908201527f5265656e7472616e637947756172643a207265656e7472616e742063616c6c00604082015260600190565b60006101008201905060018060a01b038084511683528060208501511660208401525060408301516040830152606083015160608301526080830151608083015260a083015160a083015260c083015160c083015260e083015160048110612e9657634e487b7160e01b600052602160045260246000fd5b8060e08401525092915050565b60008219821115612eb657612eb6612f9b565b500190565b600082612eca57612eca612fb1565b500490565b6000816000190483118215151615612ee957612ee9612f9b565b500290565b600082821015612f0057612f00612f9b565b500390565b60005b83811015612f20578181015183820152602001612f08565b8381111561168d5750506000910152565b600181811c90821680612f4557607f821691505b60208210811415612f6657634e487b7160e01b600052602260045260246000fd5b50919050565b6000600019821415612f8057612f80612f9b565b5060010190565b600082612f9657612f96612fb1565b500690565b634e487b7160e01b600052601160045260246000fd5b634e487b7160e01b600052601260045260246000fd5b634e487b7160e01b600052604160045260246000fd5b6001600160e01b031981168114611add57600080fdfea2646970667358221220b29f435b593bcb8674ff9599f12820f29bbddf38dacea7ecd29b5c61854077c164736f6c63430008040033",
  "linkReferences": {},
  "deployedLinkReferences": {}
}