{
  "_format": "hh-sol-artifact-1",
  "contractName": "ParkingSpace",
  "sourceName": "contracts/ParkingSpace.sol",
  "abi": [
    {
      "inputs": [],
      "stateMutability": "nonpayable",
      "type": "constructor"
    },
    {
      "anonymous": false,
      "inputs": [
        {
          "indexed": true,
          "internalType": "address",
          "name": "owner",
          "type": "address"
        },
        {
          "indexed": true,
          "internalType": "address",
          "name": "approved",
          "type": "address"
        },
        {
          "indexed": true,
          "internalType": "uint256",
          "name": "tokenId",
          "type": "uint256"
        }
      ],
      "name": "Approval",
      "type": "event"
    },
    {
      "anonymous": false,
      "inputs": [
        {
          "indexed": true,
          "internalType": "address",
          "name": "owner",
          "type": "address"
        },
        {
          "indexed": true,
          "internalType": "address",
          "name": "operator",
          "type": "address"
        },
        {
          "indexed": false,
          "internalType": "bool",
          "name": "approved",
          "type": "bool"
        }
      ],
      "name": "ApprovalForAll",
      "type": "event"
    },
    {
      "anonymous": false,
      "inputs": [
        {
          "indexed": true,
          "internalType": "address",
          "name": "previousOwner",
          "type": "address"
        },
        {
          "indexed": true,
          "internalType": "address",
          "name": "newOwner",
          "type": "address"
        }
      ],
      "name": "OwnershipTransferred",
      "type": "event"
    },
    {
      "anonymous": false,
      "inputs": [
        {
          "indexed": true,
          "internalType": "address",
          "name": "from",
          "type": "address"
        },
        {
          "indexed": true,
          "internalType": "address",
          "name": "to",
          "type": "address"
        },
        {
          "indexed": true,
          "internalType": "uint256",
          "name": "tokenId",
          "type": "uint256"
        }
      ],
      "name": "Transfer",
      "type": "event"
    },
    {
      "inputs": [],
      "name": "additionalTime",
      "outputs": [
        {
          "internalType": "uint256",
          "name": "",
          "type": "uint256"
        }
      ],
      "stateMutability": "view",
      "type": "function"
    },
    {
      "inputs": [
        {
          "internalType": "address",
          "name": "to",
          "type": "address"
        },
        {
          "internalType": "uint256",
          "name": "_tokenId",
          "type": "uint256"
        }
      ],
      "name": "approve",
      "outputs": [],
      "stateMutability": "nonpayable",
      "type": "function"
    },
    {
      "inputs": [
        {
          "internalType": "address",
          "name": "owner",
          "type": "address"
        }
      ],
      "name": "balanceOf",
      "outputs": [
        {
          "internalType": "uint256",
          "name": "",
          "type": "uint256"
        }
      ],
      "stateMutability": "view",
      "type": "function"
    },
    {
      "inputs": [
        {
          "internalType": "address",
          "name": "",
          "type": "address"
        }
      ],
      "name": "blacklisted",
      "outputs": [
        {
          "internalType": "bool",
          "name": "",
          "type": "bool"
        }
      ],
      "stateMutability": "view",
      "type": "function"
    },
    {
      "inputs": [
        {
          "internalType": "uint256",
          "name": "tokenId",
          "type": "uint256"
        }
      ],
      "name": "buyLot",
      "outputs": [],
      "stateMutability": "payable",
      "type": "function"
    },
    {
      "inputs": [
        {
          "internalType": "uint256",
          "name": "tokenId",
          "type": "uint256"
        }
      ],
      "name": "clientEndRent",
      "outputs": [],
      "stateMutability": "payable",
      "type": "function"
    },
    {
      "inputs": [
        {
          "internalType": "string",
          "name": "uri",
          "type": "string"
        }
      ],
      "name": "createLot",
      "outputs": [],
      "stateMutability": "payable",
      "type": "function"
    },
    {
      "inputs": [
        {
          "internalType": "uint256",
          "name": "tokenId",
          "type": "uint256"
        }
      ],
      "name": "getApproved",
      "outputs": [
        {
          "internalType": "address",
          "name": "",
          "type": "address"
        }
      ],
      "stateMutability": "view",
      "type": "function"
    },
    {
      "inputs": [
        {
          "internalType": "uint256",
          "name": "tokenId",
          "type": "uint256"
        }
      ],
      "name": "getLot",
      "outputs": [
        {
          "components": [
            {
              "internalType": "address payable",
              "name": "lender",
              "type": "address"
            },
            {
              "internalType": "address payable",
              "name": "renter",
              "type": "address"
            },
            {
              "internalType": "uint256",
              "name": "price",
              "type": "uint256"
            },
            {
              "internalType": "uint256",
              "name": "rentPrice",
              "type": "uint256"
            },
            {
              "internalType": "uint256",
              "name": "deposit",
              "type": "uint256"
            },
            {
              "internalType": "uint256",
              "name": "returnDay",
              "type": "uint256"
            },
            {
              "internalType": "uint256",
              "name": "rentTime",
              "type": "uint256"
            },
            {
              "internalType": "enum ParkingSpace.Listing",
              "name": "status",
              "type": "uint8"
            }
          ],
          "internalType": "struct ParkingSpace.Lot",
          "name": "",
          "type": "tuple"
        }
      ],
      "stateMutability": "view",
      "type": "function"
    },
    {
      "inputs": [],
      "name": "getMaxLotPerWallet",
      "outputs": [
        {
          "internalType": "uint256",
          "name": "",
          "type": "uint256"
        }
      ],
      "stateMutability": "view",
      "type": "function"
    },
    {
      "inputs": [],
      "name": "getMintFee",
      "outputs": [
        {
          "internalType": "uint256",
          "name": "",
          "type": "uint256"
        }
      ],
      "stateMutability": "view",
      "type": "function"
    },
    {
      "inputs": [],
      "name": "getParkingLotsLength",
      "outputs": [
        {
          "internalType": "uint256",
          "name": "",
          "type": "uint256"
        }
      ],
      "stateMutability": "view",
      "type": "function"
    },
    {
      "inputs": [
        {
          "internalType": "uint256",
          "name": "tokenId",
          "type": "uint256"
        },
        {
          "internalType": "uint256",
          "name": "_time",
          "type": "uint256"
        },
        {
          "internalType": "uint256",
          "name": "_status",
          "type": "uint256"
        }
      ],
      "name": "getRentPrice",
      "outputs": [
        {
          "internalType": "uint256",
          "name": "",
          "type": "uint256"
        }
      ],
      "stateMutability": "view",
      "type": "function"
    },
    {
      "inputs": [
        {
          "internalType": "address",
          "name": "owner",
          "type": "address"
        },
        {
          "internalType": "address",
          "name": "operator",
          "type": "address"
        }
      ],
      "name": "isApprovedForAll",
      "outputs": [
        {
          "internalType": "bool",
          "name": "",
          "type": "bool"
        }
      ],
      "stateMutability": "view",
      "type": "function"
    },
    {
      "inputs": [
        {
          "internalType": "uint256",
          "name": "tokenId",
          "type": "uint256"
        }
      ],
      "name": "lenderEndRent",
      "outputs": [],
      "stateMutability": "payable",
      "type": "function"
    },
    {
      "inputs": [],
      "name": "name",
      "outputs": [
        {
          "internalType": "string",
          "name": "",
          "type": "string"
        }
      ],
      "stateMutability": "view",
      "type": "function"
    },
    {
      "inputs": [],
      "name": "owner",
      "outputs": [
        {
          "internalType": "address",
          "name": "",
          "type": "address"
        }
      ],
      "stateMutability": "view",
      "type": "function"
    },
    {
      "inputs": [
        {
          "internalType": "uint256",
          "name": "tokenId",
          "type": "uint256"
        }
      ],
      "name": "ownerOf",
      "outputs": [
        {
          "internalType": "address",
          "name": "",
          "type": "address"
        }
      ],
      "stateMutability": "view",
      "type": "function"
    },
    {
      "inputs": [],
      "name": "renounceOwnership",
      "outputs": [],
      "stateMutability": "nonpayable",
      "type": "function"
    },
    {
      "inputs": [
        {
          "internalType": "uint256",
          "name": "tokenId",
          "type": "uint256"
        },
        {
          "internalType": "uint256",
          "name": "_time",
          "type": "uint256"
        }
      ],
      "name": "rentLot",
      "outputs": [],
      "stateMutability": "payable",
      "type": "function"
    },
    {
      "inputs": [
        {
          "internalType": "address",
          "name": "from",
          "type": "address"
        },
        {
          "internalType": "address",
          "name": "to",
          "type": "address"
        },
        {
          "internalType": "uint256",
          "name": "tokenId",
          "type": "uint256"
        }
      ],
      "name": "safeTransferFrom",
      "outputs": [],
      "stateMutability": "nonpayable",
      "type": "function"
    },
    {
      "inputs": [
        {
          "internalType": "address",
          "name": "from",
          "type": "address"
        },
        {
          "internalType": "address",
          "name": "to",
          "type": "address"
        },
        {
          "internalType": "uint256",
          "name": "_tokenId",
          "type": "uint256"
        },
        {
          "internalType": "bytes",
          "name": "data",
          "type": "bytes"
        }
      ],
      "name": "safeTransferFrom",
      "outputs": [],
      "stateMutability": "nonpayable",
      "type": "function"
    },
    {
      "inputs": [
        {
          "internalType": "address",
          "name": "operator",
          "type": "address"
        },
        {
          "internalType": "bool",
          "name": "approved",
          "type": "bool"
        }
      ],
      "name": "setApprovalForAll",
      "outputs": [],
      "stateMutability": "nonpayable",
      "type": "function"
    },
    {
      "inputs": [
        {
          "internalType": "uint256",
          "name": "tokenId",
          "type": "uint256"
        },
        {
          "internalType": "uint256",
          "name": "_price",
          "type": "uint256"
        },
        {
          "internalType": "uint256",
          "name": "deposit",
          "type": "uint256"
        }
      ],
      "name": "setRent",
      "outputs": [],
      "stateMutability": "nonpayable",
      "type": "function"
    },
    {
      "inputs": [
        {
          "internalType": "uint256",
          "name": "tokenId",
          "type": "uint256"
        },
        {
          "internalType": "uint256",
          "name": "_price",
          "type": "uint256"
        }
      ],
      "name": "setSale",
      "outputs": [],
      "stateMutability": "nonpayable",
      "type": "function"
    },
    {
      "inputs": [
        {
          "internalType": "uint256",
          "name": "tokenId",
          "type": "uint256"
        }
      ],
      "name": "setUnavailable",
      "outputs": [],
      "stateMutability": "nonpayable",
      "type": "function"
    },
    {
      "inputs": [
        {
          "internalType": "bytes4",
          "name": "interfaceId",
          "type": "bytes4"
        }
      ],
      "name": "supportsInterface",
      "outputs": [
        {
          "internalType": "bool",
          "name": "",
          "type": "bool"
        }
      ],
      "stateMutability": "view",
      "type": "function"
    },
    {
      "inputs": [],
      "name": "symbol",
      "outputs": [
        {
          "internalType": "string",
          "name": "",
          "type": "string"
        }
      ],
      "stateMutability": "view",
      "type": "function"
    },
    {
      "inputs": [
        {
          "internalType": "uint256",
          "name": "tokenId",
          "type": "uint256"
        }
      ],
      "name": "tokenURI",
      "outputs": [
        {
          "internalType": "string",
          "name": "",
          "type": "string"
        }
      ],
      "stateMutability": "view",
      "type": "function"
    },
    {
      "inputs": [
        {
          "internalType": "address",
          "name": "from",
          "type": "address"
        },
        {
          "internalType": "address",
          "name": "to",
          "type": "address"
        },
        {
          "internalType": "uint256",
          "name": "_tokenId",
          "type": "uint256"
        }
      ],
      "name": "transferFrom",
      "outputs": [],
      "stateMutability": "nonpayable",
      "type": "function"
    },
    {
      "inputs": [
        {
          "internalType": "address",
          "name": "newOwner",
          "type": "address"
        }
      ],
      "name": "transferOwnership",
      "outputs": [],
      "stateMutability": "nonpayable",
      "type": "function"
    }
  ],
  "bytecode": "0x60806040523480156200001157600080fd5b50604080518082018252600c81526b5061726b696e67537061636560a01b602080830191825283518085019094526002845261505360f01b908401528151919291620000609160009162000110565b5080516200007690600190602084019062000110565b505050620000936200008d620000ba60201b60201c565b620000be565b6001600855614650600a908155600e55670de0b6b3a7640000600d819055600b55620001f3565b3390565b600780546001600160a01b038381166001600160a01b0319831681179093556040519116919082907f8be0079c531659141344cd1fd0a4f28419497f9722a3daafe3b4186f6b6457e090600090a35050565b8280546200011e90620001b6565b90600052602060002090601f0160209004810192826200014257600085556200018d565b82601f106200015d57805160ff19168380011785556200018d565b828001600101855582156200018d579182015b828111156200018d57825182559160200191906001019062000170565b506200019b9291506200019f565b5090565b5b808211156200019b5760008155600101620001a0565b600181811c90821680620001cb57607f821691505b60208210811415620001ed57634e487b7160e01b600052602260045260246000fd5b50919050565b612fc480620002036000396000f3fe6080604052600436106101d85760003560e01c806395d89b4111610102578063c87b56dd11610095578063e985e9c511610064578063e985e9c514610522578063f0b5c7691461056b578063f2fde38b1461057e578063f901a18f1461059e57600080fd5b8063c87b56dd146104a7578063da19c5c6146104c7578063dbac26e9146104dc578063df1199481461050c57600080fd5b8063b10aab17116100d1578063b10aab1714610434578063b26549e114610454578063b532f92c14610467578063b88d4fde1461048757600080fd5b806395d89b41146103b2578063a22cb465146103c7578063a945a559146103e7578063ab995d121461040757600080fd5b80634e12125f1161017a57806374e3e3dc1161014957806374e3e3dc146103595780637a5caab31461036c578063868c1bab146103815780638da5cb5b1461039457600080fd5b80634e12125f146102f15780636352211e1461030457806370a0823114610324578063715018a61461034457600080fd5b8063095ea7b3116101b6578063095ea7b31461026c57806319c29f8a1461028e57806323b872dd146102b157806342842e0e146102d157600080fd5b806301ffc9a7146101dd57806306fdde0314610212578063081812fc14610234575b600080fd5b3480156101e957600080fd5b506101fd6101f8366004612a51565b6105be565b60405190151581526020015b60405180910390f35b34801561021e57600080fd5b50610227610610565b6040516102099190612bcb565b34801561024057600080fd5b5061025461024f366004612acf565b6106a2565b6040516001600160a01b039091168152602001610209565b34801561027857600080fd5b5061028c610287366004612a28565b6106c9565b005b34801561029a57600080fd5b506102a3610716565b604051908152602001610209565b3480156102bd57600080fd5b5061028c6102cc36600461293a565b610726565b3480156102dd57600080fd5b5061028c6102ec36600461293a565b61076c565b61028c6102ff366004612a89565b610787565b34801561031057600080fd5b5061025461031f366004612acf565b610a7c565b34801561033057600080fd5b506102a361033f3660046128ee565b610adc565b34801561035057600080fd5b5061028c610b62565b61028c610367366004612acf565b610b76565b34801561037857600080fd5b50600d546102a3565b61028c61038f366004612acf565b610ddf565b3480156103a057600080fd5b506007546001600160a01b0316610254565b3480156103be57600080fd5b506102276110dd565b3480156103d357600080fd5b5061028c6103e23660046129ee565b6110ec565b3480156103f357600080fd5b506102a3610402366004612b08565b6110f7565b34801561041357600080fd5b50610427610422366004612acf565b611193565b6040516102099190612db9565b34801561044057600080fd5b5061028c61044f366004612b08565b611280565b61028c610462366004612acf565b61140b565b34801561047357600080fd5b5061028c610482366004612acf565b611502565b34801561049357600080fd5b5061028c6104a2366004612975565b6115e3565b3480156104b357600080fd5b506102276104c2366004612acf565b61162b565b3480156104d357600080fd5b50600e546102a3565b3480156104e857600080fd5b506101fd6104f73660046128ee565b600c6020526000908152604090205460ff1681565b34801561051857600080fd5b506102a3600a5481565b34801561052e57600080fd5b506101fd61053d366004612908565b6001600160a01b03918216600090815260056020908152604080832093909416825291909152205460ff1690565b61028c610579366004612ae7565b611636565b34801561058a57600080fd5b5061028c6105993660046128ee565b611952565b3480156105aa57600080fd5b5061028c6105b9366004612ae7565b6119cb565b60006001600160e01b031982166380ac58cd60e01b14806105ef57506001600160e01b03198216635b5e139f60e01b145b8061060a57506301ffc9a760e01b6001600160e01b03198316145b92915050565b60606000805461061f90612ecc565b80601f016020809104026020016040519081016040528092919081815260200182805461064b90612ecc565b80156106985780601f1061066d57610100808354040283529160200191610698565b820191906000526020600020905b81548152906001019060200180831161067b57829003601f168201915b5050505050905090565b60006106ad82611afb565b506000908152600460205260409020546001600160a01b031690565b6000818152600f60205260409020546001600160a01b031633146107085760405162461bcd60e51b81526004016106ff90612cc1565b60405180910390fd5b6107128282611b5a565b5050565b600061072160095490565b905090565b6000818152600f60205260409020546001600160a01b0316331461075c5760405162461bcd60e51b81526004016106ff90612cc1565b610767838383611c6b565b505050565b610767838383604051806020016040528060008152506115e3565b336000908152600c602052604090205460ff16156107b75760405162461bcd60e51b81526004016106ff90612c76565b600260085414156107da5760405162461bcd60e51b81526004016106ff90612d82565b60026008558051600f106108265760405162461bcd60e51b8152602060048201526013602482015272155c9a481a185cc81d1bc81899481d985b1a59606a1b60448201526064016106ff565b600d5434146108775760405162461bcd60e51b815260206004820152601c60248201527f596f75206e65656420746f2070617920746865206d696e74206665650000000060448201526064016106ff565b600061088260095490565b9050610892600980546001019055565b604051806101000160405280336001600160a01b03168152602001336001600160a01b0316815260200160008152602001600081526020016000815260200160008152602001600081526020016002600381111561090057634e487b7160e01b600052602160045260246000fd5b90526000828152600f6020908152604091829020835181546001600160a01b039182166001600160a01b03199182161783559285015160018084018054929093169190941617905591830151600283015560608301516003808401919091556080840151600484015560a0840151600584015560c0840151600684015560e08401516007840180549193909260ff199092169184908111156109b257634e487b7160e01b600052602160045260246000fd5b021790555050600754604051600092506001600160a01b039091169034908381818185875af1925050503d8060008114610a08576040519150601f19603f3d011682016040523d82523d6000602084013e610a0d565b606091505b5050905080610a5e5760405162461bcd60e51b815260206004820152601b60248201527f5061796d656e74206661696c656420666f72206d696e7420666565000000000060448201526064016106ff565b610a683383611ce3565b610a728284611cfd565b5050600160085550565b6000818152600260205260408120546001600160a01b03168061060a5760405162461bcd60e51b8152602060048201526018602482015277115490cdcc8c4e881a5b9d985b1a59081d1bdad95b88125160421b60448201526064016106ff565b60006001600160a01b038216610b465760405162461bcd60e51b815260206004820152602960248201527f4552433732313a2061646472657373207a65726f206973206e6f7420612076616044820152683634b21037bbb732b960b91b60648201526084016106ff565b506001600160a01b031660009081526003602052604090205490565b610b6a611d97565b610b746000611df1565b565b336000908152600c602052604090205460ff1615610ba65760405162461bcd60e51b81526004016106ff90612c76565b60026008541415610bc95760405162461bcd60e51b81526004016106ff90612d82565b60026008556000818152600f602052604090205481906001600160a01b0316331415610c075760405162461bcd60e51b81526004016106ff90612d3e565b6000828152600f6020526040902060028101543414610c745760405162461bcd60e51b815260206004820152602360248201527f596f75206e65656420746f206d61746368207468652073656c6c696e6720707260448201526269636560e81b60648201526084016106ff565b6000600782015460ff166003811115610c9d57634e487b7160e01b600052602160045260246000fd5b14610cde5760405162461bcd60e51b81526020600482015260116024820152704c6f742069736e2774206f6e2073616c6560781b60448201526064016106ff565b8054336001600160a01b03198083168217845560018401805490911682179055600060028085019190915560078401805460ff191690911790556001600160a01b0390911690610d3090309086611e43565b6000816001600160a01b03163460405160006040518083038185875af1925050503d8060008114610d7d576040519150601f19603f3d011682016040523d82523d6000602084013e610d82565b606091505b5050905080610dd35760405162461bcd60e51b815260206004820152601960248201527f5061796d656e7420746f20627579206c6f74206661696c65640000000000000060448201526064016106ff565b50506001600855505050565b60026008541415610e025760405162461bcd60e51b81526004016106ff90612d82565b600260088190556000828152600f6020908152604080832081516101008101835281546001600160a01b039081168252600183015416938101939093529384015490820152600380840154606083015260048401546080830152600584015460a0830152600684015460c083015260078401549293919260e084019160ff90911690811115610ea157634e487b7160e01b600052602160045260246000fd5b6003811115610ec057634e487b7160e01b600052602160045260246000fd5b90525060208101519091506001600160a01b03163314610f225760405162461bcd60e51b815260206004820181905260248201527f4f6e6c79207468652072656e7465722063616e20656e64207468652072656e7460448201526064016106ff565b600a548160a00151610f349190612e3e565b421115610f9f5760405162461bcd60e51b815260206004820152603360248201527f596f752068617665206265656e20626c61636b6c69737465642064756520746f604482015272081b185d19481c995d1d5c9b881bd9881b1bdd606a1b60648201526084016106ff565b6064816080015110156110cb576000610fbe838360c0015160036110f7565b90508034146110265760405162461bcd60e51b815260206004820152602e60248201527f596f75206e65656420746f20706179207468652072656d61696e696e6720666560448201526d195cc81d1bc8195b99081c995b9d60921b60648201526084016106ff565b81516040516000916001600160a01b03169083908381818185875af1925050503d8060008114611072576040519150601f19603f3d011682016040523d82523d6000602084013e611077565b606091505b50509050806110c85760405162461bcd60e51b815260206004820152601a60248201527f5061796d656e7420746f20656e642072656e74206661696c656400000000000060448201526064016106ff565b50505b6110d482611fdf565b50506001600855565b60606001805461061f90612ecc565b610712338383612040565b6000838152600f602052604081206003810154829061111890606490612e56565b9050600384141561115f576111306201518086612e56565b81836004015460646111429190612e89565b61114c9190612e6a565b6111569190612e6a565b9250505061118c565b6001841415611185576111756201518086612e56565b81836004015461114c9190612e6a565b6000925050505b9392505050565b61119b61274e565b6000828152600260205260409020546001600160a01b03166111bc57600080fd5b6000828152600f602090815260409182902082516101008101845281546001600160a01b03908116825260018301541692810192909252600281015492820192909252600380830154606083015260048301546080830152600583015460a0830152600683015460c0830152600783015491929160e084019160ff9091169081111561125857634e487b7160e01b600052602160045260246000fd5b600381111561127757634e487b7160e01b600052602160045260246000fd5b90525092915050565b8260036000828152600f602052604090206007015460ff1660038111156112b757634e487b7160e01b600052602160045260246000fd5b14156112d55760405162461bcd60e51b81526004016106ff90612cf8565b6000848152600f602052604090205484906001600160a01b0316331461130d5760405162461bcd60e51b81526004016106ff90612c30565b83600b548110156113545760405162461bcd60e51b8152602060048201526011602482015270456e7465722076616c696420707269636560781b60448201526064016106ff565b6000868152600f6020526040902060648511156113b35760405162461bcd60e51b815260206004820152601a60248201527f456e7465722076616c696420646570736f697420616d6f756e7400000000000060448201526064016106ff565b60078101805460ff19166001179055306113cc88610a7c565b6001600160a01b031614156113e6576113e6303389611e43565b6113f0308861210f565b60038101959095555050600060028401555060049091015550565b6000818152600f602052604090205481906001600160a01b031633146114435760405162461bcd60e51b81526004016106ff90612c30565b6000828152600f60205260409020600a5460058201546114639190612e3e565b4210156114d15760405162461bcd60e51b815260206004820152603660248201527f5468657265206973207374696c6c2074696d65206c65667420666f722072656e60448201527574657220746f2072657475726e20746865206c6f742160501b60648201526084016106ff565b6001818101546001600160a01b03166000908152600c60205260409020805460ff1916909117905561076783611fdf565b8060036000828152600f602052604090206007015460ff16600381111561153957634e487b7160e01b600052602160045260246000fd5b14156115575760405162461bcd60e51b81526004016106ff90612cf8565b6000828152600f602052604090205482906001600160a01b0316331461158f5760405162461bcd60e51b81526004016106ff90612c30565b6000838152600f6020526040812060078101805460ff1916600290811790915560048201839055810182905560030155306115c984610a7c565b6001600160a01b0316141561076757610767303385611e43565b6000828152600f60205260409020546001600160a01b031633146116195760405162461bcd60e51b81526004016106ff90612cc1565b6116258484848461217d565b50505050565b606061060a826121b0565b336000908152600c602052604090205460ff16156116665760405162461bcd60e51b81526004016106ff90612c76565b8160036000828152600f602052604090206007015460ff16600381111561169d57634e487b7160e01b600052602160045260246000fd5b14156116bb5760405162461bcd60e51b81526004016106ff90612cf8565b6000838152600f602052604090205483906001600160a01b03163314156116f45760405162461bcd60e51b81526004016106ff90612d3e565b6000848152600f602052604090206001600782015460ff16600381111561172b57634e487b7160e01b600052602160045260246000fd5b146117705760405162461bcd60e51b8152602060048201526015602482015274131bdd081a5cdb89dd081d5c08199bdc881c995b9d605a1b60448201526064016106ff565b620151808410158015611786575062278d008411155b6117ef5760405162461bcd60e51b815260206004820152603460248201527f54696d65206e6565647320746f2072656e74206e6565647320746f206265206260448201527365747765656e203120616e64203330206461797360601b60648201526084016106ff565b60006117fd868660016110f7565b905080341461184e5760405162461bcd60e51b815260206004820152601b60248201527f596f75206e65656420746f2070617920746f2072656e74206c6f74000000000060448201526064016106ff565b6001820180546001600160a01b03191633179055600682018590556118738542612e3e565b600583015560078201805460ff19166003179055815461189d906001600160a01b03163388611e43565b6118a7308761210f565b81546040516000916001600160a01b03169034908381818185875af1925050503d80600081146118f3576040519150601f19603f3d011682016040523d82523d6000602084013e6118f8565b606091505b50509050806119495760405162461bcd60e51b815260206004820152601a60248201527f5061796d656e7420746f2072656e74206c6f74206661696c656400000000000060448201526064016106ff565b50505050505050565b61195a611d97565b6001600160a01b0381166119bf5760405162461bcd60e51b815260206004820152602660248201527f4f776e61626c653a206e6577206f776e657220697320746865207a65726f206160448201526564647265737360d01b60648201526084016106ff565b6119c881611df1565b50565b8160036000828152600f602052604090206007015460ff166003811115611a0257634e487b7160e01b600052602160045260246000fd5b1415611a205760405162461bcd60e51b81526004016106ff90612cf8565b6000838152600f602052604090205483906001600160a01b03163314611a585760405162461bcd60e51b81526004016106ff90612c30565b82600b54811015611a9f5760405162461bcd60e51b8152602060048201526011602482015270456e7465722076616c696420707269636560781b60448201526064016106ff565b6000858152600f6020526040812060078101805460ff191690556003810182905560028101869055600481019190915533611ad987610a7c565b6001600160a01b03161415611af357611af3333088611e43565b505050505050565b6000818152600260205260409020546001600160a01b03166119c85760405162461bcd60e51b8152602060048201526018602482015277115490cdcc8c4e881a5b9d985b1a59081d1bdad95b88125160421b60448201526064016106ff565b6000611b6582610a7c565b9050806001600160a01b0316836001600160a01b03161415611bd35760405162461bcd60e51b815260206004820152602160248201527f4552433732313a20617070726f76616c20746f2063757272656e74206f776e656044820152603960f91b60648201526084016106ff565b336001600160a01b0382161480611bef5750611bef813361053d565b611c615760405162461bcd60e51b815260206004820152603e60248201527f4552433732313a20617070726f76652063616c6c6572206973206e6f7420746f60448201527f6b656e206f776e6572206e6f7220617070726f76656420666f7220616c6c000060648201526084016106ff565b610767838361210f565b611c7533826122c1565b611cd85760405162461bcd60e51b815260206004820152602e60248201527f4552433732313a2063616c6c6572206973206e6f7420746f6b656e206f776e6560448201526d1c881b9bdc88185c1c1c9bdd995960921b60648201526084016106ff565b610767838383611e43565b61071282826040518060200160405280600081525061233f565b6000828152600260205260409020546001600160a01b0316611d785760405162461bcd60e51b815260206004820152602e60248201527f45524337323155524953746f726167653a2055524920736574206f66206e6f6e60448201526d32bc34b9ba32b73a103a37b5b2b760911b60648201526084016106ff565b60008281526006602090815260409091208251610767928401906127c3565b6007546001600160a01b03163314610b745760405162461bcd60e51b815260206004820181905260248201527f4f776e61626c653a2063616c6c6572206973206e6f7420746865206f776e657260448201526064016106ff565b600780546001600160a01b038381166001600160a01b0319831681179093556040519116919082907f8be0079c531659141344cd1fd0a4f28419497f9722a3daafe3b4186f6b6457e090600090a35050565b826001600160a01b0316611e5682610a7c565b6001600160a01b031614611eba5760405162461bcd60e51b815260206004820152602560248201527f4552433732313a207472616e736665722066726f6d20696e636f72726563742060448201526437bbb732b960d91b60648201526084016106ff565b6001600160a01b038216611f1c5760405162461bcd60e51b8152602060048201526024808201527f4552433732313a207472616e7366657220746f20746865207a65726f206164646044820152637265737360e01b60648201526084016106ff565b611f2760008261210f565b6001600160a01b0383166000908152600360205260408120805460019290611f50908490612e89565b90915550506001600160a01b0382166000908152600360205260408120805460019290611f7e908490612e3e565b909155505060008181526002602052604080822080546001600160a01b0319166001600160a01b0386811691821790925591518493918716917fddf252ad1be2c89b69c2b068fc378daa952ba7f163c4a11628f55a4df523b3ef91a4505050565b6000818152600f602052604081206001808201805460058401859055600684019490945582546001600160a01b039081166001600160a01b03198616811790925560078401805460ff19169093179092559192169061076790829085611e43565b816001600160a01b0316836001600160a01b031614156120a25760405162461bcd60e51b815260206004820152601960248201527f4552433732313a20617070726f766520746f2063616c6c65720000000000000060448201526064016106ff565b6001600160a01b03838116600081815260056020908152604080832094871680845294825291829020805460ff191686151590811790915591519182527f17307eab39ab6107e8899845ad3d59bd9653f200f220920489ca2b5937696c31910160405180910390a3505050565b600081815260046020526040902080546001600160a01b0319166001600160a01b038416908117909155819061214482610a7c565b6001600160a01b03167f8c5be1e5ebec7d5bd14f71427d1e84f3dd0314c0f7b2291e5b200ac8c7c3b92560405160405180910390a45050565b612188848484611e43565b61219484848484612372565b6116255760405162461bcd60e51b81526004016106ff90612bde565b60606121bb82611afb565b600082815260066020526040812080546121d490612ecc565b80601f016020809104026020016040519081016040528092919081815260200182805461220090612ecc565b801561224d5780601f106122225761010080835404028352916020019161224d565b820191906000526020600020905b81548152906001019060200180831161223057829003601f168201915b50505050509050600061226b60408051602081019091526000815290565b905080516000141561227e575092915050565b8151156122b0578082604051602001612298929190612b5f565b60405160208183030381529060405292505050919050565b6122b98461247f565b949350505050565b6000806122cd83610a7c565b9050806001600160a01b0316846001600160a01b0316148061231457506001600160a01b0380821660009081526005602090815260408083209388168352929052205460ff165b806122b95750836001600160a01b031661232d846106a2565b6001600160a01b031614949350505050565b61234983836124f2565b6123566000848484612372565b6107675760405162461bcd60e51b81526004016106ff90612bde565b60006001600160a01b0384163b1561247457604051630a85bd0160e11b81526001600160a01b0385169063150b7a02906123b6903390899088908890600401612b8e565b602060405180830381600087803b1580156123d057600080fd5b505af1925050508015612400575060408051601f3d908101601f191682019092526123fd91810190612a6d565b60015b61245a573d80801561242e576040519150601f19603f3d011682016040523d82523d6000602084013e612433565b606091505b5080516124525760405162461bcd60e51b81526004016106ff90612bde565b805181602001fd5b6001600160e01b031916630a85bd0160e11b1490506122b9565b506001949350505050565b606061248a82611afb565b60006124a160408051602081019091526000815290565b905060008151116124c1576040518060200160405280600081525061118c565b806124cb84612634565b6040516020016124dc929190612b5f565b6040516020818303038152906040529392505050565b6001600160a01b0382166125485760405162461bcd60e51b815260206004820181905260248201527f4552433732313a206d696e7420746f20746865207a65726f206164647265737360448201526064016106ff565b6000818152600260205260409020546001600160a01b0316156125ad5760405162461bcd60e51b815260206004820152601c60248201527f4552433732313a20746f6b656e20616c7265616479206d696e7465640000000060448201526064016106ff565b6001600160a01b03821660009081526003602052604081208054600192906125d6908490612e3e565b909155505060008181526002602052604080822080546001600160a01b0319166001600160a01b03861690811790915590518392907fddf252ad1be2c89b69c2b068fc378daa952ba7f163c4a11628f55a4df523b3ef908290a45050565b6060816126585750506040805180820190915260018152600360fc1b602082015290565b8160005b8115612682578061266c81612f07565b915061267b9050600a83612e56565b915061265c565b60008167ffffffffffffffff8111156126ab57634e487b7160e01b600052604160045260246000fd5b6040519080825280601f01601f1916602001820160405280156126d5576020820181803683370190505b5090505b84156122b9576126ea600183612e89565b91506126f7600a86612f22565b612702906030612e3e565b60f81b81838151811061272557634e487b7160e01b600052603260045260246000fd5b60200101906001600160f81b031916908160001a905350612747600a86612e56565b94506126d9565b60405180610100016040528060006001600160a01b0316815260200160006001600160a01b031681526020016000815260200160008152602001600081526020016000815260200160008152602001600060038111156127be57634e487b7160e01b600052602160045260246000fd5b905290565b8280546127cf90612ecc565b90600052602060002090601f0160209004810192826127f15760008555612837565b82601f1061280a57805160ff1916838001178555612837565b82800160010185558215612837579182015b8281111561283757825182559160200191906001019061281c565b50612843929150612847565b5090565b5b808211156128435760008155600101612848565b600067ffffffffffffffff8084111561287757612877612f62565b604051601f8501601f19908116603f0116810190828211818310171561289f5761289f612f62565b816040528093508581528686860111156128b857600080fd5b858560208301376000602087830101525050509392505050565b80356001600160a01b03811681146128e957600080fd5b919050565b6000602082840312156128ff578081fd5b61118c826128d2565b6000806040838503121561291a578081fd5b612923836128d2565b9150612931602084016128d2565b90509250929050565b60008060006060848603121561294e578081fd5b612957846128d2565b9250612965602085016128d2565b9150604084013590509250925092565b6000806000806080858703121561298a578081fd5b612993856128d2565b93506129a1602086016128d2565b925060408501359150606085013567ffffffffffffffff8111156129c3578182fd5b8501601f810187136129d3578182fd5b6129e28782356020840161285c565b91505092959194509250565b60008060408385031215612a00578182fd5b612a09836128d2565b915060208301358015158114612a1d578182fd5b809150509250929050565b60008060408385031215612a3a578182fd5b612a43836128d2565b946020939093013593505050565b600060208284031215612a62578081fd5b813561118c81612f78565b600060208284031215612a7e578081fd5b815161118c81612f78565b600060208284031215612a9a578081fd5b813567ffffffffffffffff811115612ab0578182fd5b8201601f81018413612ac0578182fd5b6122b98482356020840161285c565b600060208284031215612ae0578081fd5b5035919050565b60008060408385031215612af9578182fd5b50508035926020909101359150565b600080600060608486031215612b1c578283fd5b505081359360208301359350604090920135919050565b60008151808452612b4b816020860160208601612ea0565b601f01601f19169290920160200192915050565b60008351612b71818460208801612ea0565b835190830190612b85818360208801612ea0565b01949350505050565b6001600160a01b0385811682528416602082015260408101839052608060608201819052600090612bc190830184612b33565b9695505050505050565b60208152600061118c6020830184612b33565b60208082526032908201527f4552433732313a207472616e7366657220746f206e6f6e20455243373231526560408201527131b2b4bb32b91034b6b83632b6b2b73a32b960711b606082015260800190565b60208082526026908201527f4f6e6c7920746865206f776e65722063616e20706572666f726d20746869732060408201526530b1ba34b7b760d11b606082015260800190565b6020808252602b908201527f796f752061726520626c61636b6c69737465642066726f6d207573696e67207460408201526a686520706c6174666f726d60a81b606082015260800190565b6020808252601d908201527f43616c6c65722068617320746f206265206f776e6572206f66204e4654000000604082015260600190565b60208082526026908201527f5061726b696e67206c6f742069732063757272656e746c79206265696e672072604082015265656e7465642160d01b606082015260800190565b60208082526024908201527f546865206f776e65722063616e6e6f7420706572666f726d20746869732061636040820152633a34b7b760e11b606082015260800190565b6020808252601f908201527f5265656e7472616e637947756172643a207265656e7472616e742063616c6c00604082015260600190565b60006101008201905060018060a01b038084511683528060208501511660208401525060408301516040830152606083015160608301526080830151608083015260a083015160a083015260c083015160c083015260e083015160048110612e3157634e487b7160e01b600052602160045260246000fd5b8060e08401525092915050565b60008219821115612e5157612e51612f36565b500190565b600082612e6557612e65612f4c565b500490565b6000816000190483118215151615612e8457612e84612f36565b500290565b600082821015612e9b57612e9b612f36565b500390565b60005b83811015612ebb578181015183820152602001612ea3565b838111156116255750506000910152565b600181811c90821680612ee057607f821691505b60208210811415612f0157634e487b7160e01b600052602260045260246000fd5b50919050565b6000600019821415612f1b57612f1b612f36565b5060010190565b600082612f3157612f31612f4c565b500690565b634e487b7160e01b600052601160045260246000fd5b634e487b7160e01b600052601260045260246000fd5b634e487b7160e01b600052604160045260246000fd5b6001600160e01b0319811681146119c857600080fdfea26469706673582212203aadf8eb3d9632a89a14fd0c10ab12e0336a928be789162d607efc4689ac73d764736f6c63430008040033",
  "linkReferences": {},
  "deployedLinkReferences": {}
}